:020000040000FA
:040000003AEF00F0E3
:100008005882FACF51F0FBCF52F0D9CF53F0DACF64
:1000180054F0F2AC12EF00F014EF00F030EF00F003
:100028000E01C5AB1AEF00F01CEF00F030EF00F046
:10003800CDAB21EF00F023EF00F030EF00F002D855
:1000480030EF00F00500FA6E4E50FD6E4F50FE6E18
:100058005050FF6EFA50120054C0DAFF53C0D9FF57
:1000680052C0FBFF51C0FAFF58921100ADEF08F0E3
:100F000000000000000000000000000000000000E1
:100F100000000000000000000000000000000000D1
:100F200000000000000000000000000000000000C1
:100F30000000400100002B0E4424D96EDA6A000E36
:100F4000DA22000EDF6E9DA4A8EF07F0AAEF07F0EB
:100F5000BEEF07F02B0E4424D96EDA6A000EDA22B7
:100F6000DF8202D8BEEF07F00500FA6E4B50FD6E2F
:100F70004C50FE6E4D50FF6EFA5012009DA2C3EF12
:100F800007F0C5EF07F0D9EF07F02B0E4424D96E18
:100F9000DA6A000EDA22DF8402D8D9EF07F0050002
:100FA000FA6E4850FD6E4950FE6E4A50FF6EFA5080
:100FB00012002B0E4424D96EDA6A000EDA22DF50BA
:100FC000D8B4E5EF07F0E7EF07F0F6EF07F002D847
:100FD000F4EF07F00500FA6E4550FD6E4650FE6EC8
:100FE0004750FF6EFA501200F8EF07F086EC08F059
:100FF0001200000E876E000E866E000E836E000ECD
:10100000846E040E856E070E8C6E780E886EF70E59
:10101000896EE00E8A6E8B683F0E0F01266F600EA0
:10102000216FF30E196F070E2E6F780E116F000EE1
:10103000256F000E2D6F000E186F000E106F000E42
:10104000206F000E2C6F000E0F6F000E176F000E3A
:101050001F6F000E246F0E6916691E692369070E43
:101060002B6F0D6915691D6922690F0E2A6F0F0E0E
:101070000E01F76F0A0EB56F100EB76F1F0E906F4F
:10108000100EF86F090EF26F110E0F01056F120EA0
:10109000066F170E0E01B86F1E0E8F6F12000E0135
:1010A000C59B360E556E0F0E566E000E576EF2EC47
:1010B00008F0080E9F6E900E9D6E240E9E6E330EED
:1010C0009B6E000E9C6E380E556E120E566E000E04
:1010D000576E00EC09F0280E556E120E566E000E7B
:1010E000576EF9EC08F02E0E556E120E566E000E6D
:1010F000576E07EC09F0000E416E000E446E000EB4
:10110000436E000E426E0E01C58B1200A80E4424E1
:10111000D96EDA6A000EDA2299CFDFFF442A0F0E69
:10112000446495EF08F097EF08F099EF08F0000E8F
:10113000446E422A1200100E0E01B76F170EB86FE0
:101140000F0EF76F100EF86F400E956E000E966E34
:10115000010E936E8A90969A120000EE60F0580E7F
:10116000EE6AE806FDE100EE01F0440EEE6AE806E4
:10117000FDE15890589200010EEF09F01AEC09F0C9
:10118000CDEC08F09BEC08F0E7EC08F0F9EC07F088
:10119000DBEC08F04FEC08F01200000E0E01E16FDE
:1011A000000EE26F000EE36F000EE46F000EE56FBD
:1011B000000EE66F1200620E0E01D86F000EDA6F9D
:1011C000000EDC6F030EDE6F000EDD6F1200000EEE
:1011D0000E01956F080E966F000E976F040E936FB9
:1011E000969B120055C04EF056C04FF057C050F0BD
:1011F000120055C048F056C049F057C04AF01200DE
:1012000055C04BF056C04CF057C04DF0120055C0C1
:1012100045F056C046F057C047F01200BEEC08F04B
:1012200010EF09F03AEF00F09D989D88120086ECCF
:0A12300008F01200F29A12001200FA
:020000040020DA
:10000000FF0FFF0FFF0FFF0FFF0FFF0FFF0FFF0F80
:020000040030CA
:0C000000ECFFFFFF9FFFFFFFFFFFFFFF73
:00000001FF
